:020000040800F2
:1000000000040020C1010008C1770008C177000882
:10001000F12B0008C1770008C1770008C1770008FC
:10002000C1770008C1770008C1770008F19A00087D
:10003000C1770008C1770008C1770008D1F800082F
:10004000C177000871CD000801CF000851CF00082A
:10005000C1770008C1770008B1CA000801CB0008C9
:1000600051CB0008A1CB0008F1CB000801BD00086E
:1000700051BD0008A1BD0008F1BD000841BE000847
:1000800091BE0008E1BE0008F1C70008F1D00008E9
:1000900061D1000811D20008C1D2000841CC00088B
:1000A000C1770008C177000831F30008C177000864
:1000B00091F40008D1F4000811F5000881E000086F
:1000C000C1E10008C1770008C1770008C1770008C6
:1000D000C1770008C1770008C177000891F90008CE
:1000E000D1CC0008C1CD000811CE0008C1770008AE
:1000F000C177000871F30008C177000831BF00081C
:10010000C177000851D4000851F50008C1770008F4
:10011000C1770008C1770008F1F20008C177000834
:1001200081BF0008D1BF000821C0000871C00008CD
:10013000C1C00008C177000861CE0008C17700087F
:10014000C1770008C1770008C177000891EC00086A
:1001500011C1000861C10008B1C10008C1770008E1
:10016000C1770008C1770008C1770008C17700088F
:10017000B1CE0008C1770008711A0008C1770008E5
:10018000C1770008C1770008C1770008C17700086F
:10019000C1770008C1770008C1770008C17700085F
:1001A000C1770008C1770008C1770008C17700084F
:1001B000C1770008C1770008C1770008C17700083F
:1001C00072B62E4880F3098840F20000CCF200009D
:1001D0004EF63471CEF20001086040F20000C0F229
:1001E000F0004EF68851CEF2000108604FF000009A
:1001F000E1EE100A4EF63C71CEF2000108600620D6
:1002000080F31488BFF36F8F0FF00AFD4FF0553065
:100210001B491C4A91423CBF41F8040BFAE71A49BA
:10022000164A91423CBF41F8040BFAE71749184AB5
:10023000184B9A423EBF51F8040B42F8040BF8E702
:1002400000201549154A91423CBF41F8040BFAE7DA
:1002500007F09EFA124C134DAC4203DA54F8041B1B
:100260008847F9E701F0C4FA0F4C104DAC4203DAAD
:1002700054F8041B8847F9E707F09ABA00080020F1
:10028000000000200004002000040020C8470108EE
:100290000008002024150020281500207057002099
:1002A000C0010008C0010008C0010008C00100082A
:1002B0002DE9F04F2DED108AC1F80CD0D0F80CD0FC
:1002C000BDEC108ABDE8F08F07F0BAFB08F0F0FB38
:1002D000002383F311882846A047002008F088F9FE
:1002E00008F0CEFB07F08CFB07F0AAFF07F0A8FB95
:1002F00008F0DEFB00DFFEE7000000000000000069
:1003000081F0004102E000BF83F0004330B54FEAC6
:1003100041044FEA430594EA050F08BF90EA020F33
:100320001FBF54EA000C55EA020C7FEA645C7FEAC6
:10033000655C00F0E2804FEA5454D4EB5555B8BFE9
:100340006D420CDD2C4480EA020281EA030382EA5A
:10035000000083EA010180EA020281EA0303362DEC
:1003600088BF30BD11F0004F4FEA01314FF4801CBF
:100370004CEA113102D0404261EB410113F0004FD1
:100380004FEA03334CEA133302D0524263EB430388
:1003900094EA050F00F0A780A4F10104D5F1200E26
:1003A0000DDB02FA0EFC22FA05F2801841F1000181
:1003B00003FA0EF2801843FA05F359410EE0A5F155
:1003C00020050EF1200E012A03FA0EFC28BF4CF086
:1003D000020C43FA05F3C01851EBE37101F000453C
:1003E00007D54FF0000EDCF1000C7EEB00006EEB49
:1003F0000101B1F5801F1BD3B1F5001F0CD34908D3
:100400005FEA30004FEA3C0C04F101044FEA445229
:1004100012F5800F80F09A80BCF1004F08BF5FEAB0
:10042000500C50F1000041EB045141EA050130BD90
:100430005FEA4C0C404141EB010111F4801FA4F133
:100440000104E9D191F0000F04BF01460020B1FA88
:1004500081F308BF2033A3F10B03B3F120020CDAC0
:100460000C3208DD02F1140CC2F10C0201FA0CF09E
:1004700021FA02F10CE002F11402D8BFC2F1200C03
:1004800001FA02F120FA0CFCDCBF41EA0C019040B9
:10049000E41AA2BF01EB0451294330BD6FEA040402
:1004A0001F3C1CDA0C340EDC04F11404C4F12002ED
:1004B00020FA04F001FA02F340EA030021FA04F3FF
:1004C00045EA030130BDC4F10C04C4F1200220FA56
:1004D00002F001FA04F340EA0300294630BD21FA94
:1004E00004F0294630BD94F0000F83F4801306BF5A
:1004F00081F480110134013D4EE77FEA645C18BF4E
:100500007FEA655C29D094EA050F08BF90EA020FE4
:1005100005D054EA000C04BF1946104630BD91EADC
:10052000030F1EBF0021002030BD5FEA545C05D1DF
:100530004000494128BF41F0004130BD14F580041E
:100540003CBF01F5801130BD01F0004545F0FE4192
:1005500041F470014FF0000030BD7FEA645C1ABFC7
:10056000194610467FEA655C1CBF0B46024650EAFE
:10057000013406BF52EA033591EA030F41F400212A
:1005800030BD00BF90F0000F04BF0021704730B5B0
:100590004FF4806404F132044FF000054FF0000185
:1005A00050E700BF90F0000F04BF0021704730B546
:1005B0004FF4806404F1320410F0004548BF40421B
:1005C0004FF000013EE700BF42004FEAE2014FEA70
:1005D00031014FEA02701FBF12F07F4393F07F4F4B
:1005E00081F06051704732F07F4208BF704793F04E
:1005F0007F4F04BF41F40021704730B54FF4607461
:1006000001F0004521F000411CE700BF50EA010263
:1006100008BF704730B54FF000050AE050EA01020C
:1006200008BF704730B511F0004502D5404261EB7C
:1006300041014FF4806404F132045FEA915C3FF4BD
:10064000D8AE4FF003025FEADC0C18BF03325FEA5A
:10065000DC0C18BF033202EBDC02C2F1200300FA0B
:1006600003FC20FA02F001FA03FE40EA0E0021FA30
:1006700002F11444BDE600BF0000000000000000CD
:1006800070B54FF0FF0C4CF4E06C1CEA11541DBF28
:100690001CEA135594EA0C0F95EA0C0F00F0DEF8F3
:1006A0002C4481EA030621EA4C5123EA4C5350EAD8
:1006B000013518BF52EA033541F4801143F4801329
:1006C00038D0A0FB02CE4FF00005E1FB02E506F0BA
:1006D0000042E0FB03E54FF00006E1FB03569CF00F
:1006E000000F18BF4EF0010EA4F1FF04B6F5007F15
:1006F00064F5407404D25FEA4E0E6D4146EB060687
:1007000042EAC62141EA55514FEAC52040EA5E500F
:100710004FEACE2EB4F1FD0C88BFBCF5E06F1ED8B9
:10072000BEF1004F08BF5FEA500E50F1000041EBF0
:10073000045170BD06F0004646EA010140EA02009D
:1007400081EA0301B4EB5C04C2BFD4EB0C0541EABF
:10075000045170BD41F480114FF0000E013C00F3D4
:10076000AB8014F1360FDEBF002001F0004170BDF8
:10077000C4F10004203C35DA0C341BDC04F1140411
:10078000C4F1200500FA05F320FA04F001FA05F29D
:1007900040EA020001F0004221F0004110EBD3706A
:1007A00021FA04F642EB06015EEA430E08BF20EA96
:1007B000D37070BDC4F10C04C4F1200500FA04F339
:1007C00020FA05F001FA04F240EA020001F00041CB
:1007D00010EBD37041F100015EEA430E08BF20EA3E
:1007E000D37070BDC4F1200500FA05F24EEA020E86
:1007F00020FA04F301FA05F243EA020321FA04F0B5
:1008000001F0004121FA04F220EA020000EBD3706B
:100810005EEA430E08BF20EAD37070BD94F0000F6B
:100820000FD101F00046400041EB010111F4801F9F
:1008300008BF013CF7D041EA060195F0000F18BF50
:10084000704703F00046520043EB030313F4801F8C
:1008500008BF013DF7D043EA0603704794EA0C0F46
:100860000CEA135518BF95EA0C0F0CD050EA41065C
:1008700018BF52EA4306D1D181EA030101F00041D9
:100880004FF0000070BD50EA410606BF1046194601
:1008900052EA430619D094EA0C0F02D150EA01360D
:1008A00013D195EA0C0F05D152EA03361CBF10464E
:1008B00019460AD181EA030101F0004141F0FE41ED
:1008C00041F470014FF0000070BD41F0FE4141F471
:1008D000780170BD70B54FF0FF0C4CF4E06C1CEA71
:1008E00011541DBF1CEA135594EA0C0F95EA0C0F26
:1008F00000F0A7F8A4EB050481EA030E52EA0335E1
:100900004FEA013100F088804FEA03334FF0805501
:1009100045EA131343EA12634FEA022245EA11152E
:1009200045EA10654FEA00260EF000419D4208BFDF
:10093000964244F1FD0404F5407402D25B084FEA8C
:100940003202B61A65EB03055B084FEA32024FF438
:1009500080104FF4002CB6EB020E75EB030E22BF95
:10096000B61A754640EA0C005B084FEA3202B6EB55
:10097000020E75EB030E22BFB61A754640EA5C0004
:100980005B084FEA3202B6EB020E75EB030E22BF94
:10099000B61A754640EA9C005B084FEA3202B6EB95
:1009A000020E75EB030E22BFB61A754640EADC0054
:1009B00055EA060E18D04FEA051545EA16754FEAB6
:1009C00006164FEAC30343EA52734FEAC2025FEAD4
:1009D0001C1CC0D111F4801F0BD141EA00014FF063
:1009E00000004FF0004CB6E711F4801F04BF014334
:1009F0000020B4F1FD0C88BFBCF5E06F3FF6AFAE50
:100A0000B5EB030C04BFB6EB020C5FEA500C50F1DF
:100A1000000041EB045170BD0EF0004E4EEA113162
:100A200014EB5C04C2BFD4EB0C0541EA045170BD69
:100A300041F480114FF0000E013C90E645EA060EAD
:100A40008DE60CEA135594EA0C0F08BF95EA0C0FDB
:100A50003FF43BAF94EA0C0F0AD150EA01347FF423
:100A600034AF95EA0C0F7FF425AF104619462CE7FA
:100A700095EA0C0F06D152EA03353FF4FDAE10465D
:100A8000194622E750EA410618BF52EA43067FF4AE
:100A9000C5AE50EA41047FF40DAF52EA43057FF43E
:100AA000EBAE12E7000000000000000000000000B4
:100AB0004FF0FF3C06E000BF4FF0010C02E000BF2A
:100AC0004FF0010C4DF804CD4FEA410C7FEA6C5C0D
:100AD0004FEA430C18BF7FEA6C5C1BD001B050EAB0
:100AE000410C0CBF52EA430C91EA030F02BF90EA9B
:100AF000020F0020704710F1000F91EA030F58BF5A
:100B0000994208BF90422CBFD8176FEAE37040F0BB
:100B1000010070474FEA410C7FEA6C5C02D150EA59
:100B2000013C07D14FEA430C7FEA6C5CD6D152EA14
:100B3000033CD3D05DF8040B704700BF84461046D9
:100B400062468C461946634600E000BF01B5FFF7D8
:100B5000B7FF002848BF10F1000F01BD4DF808EDA8
:100B6000FFF7F4FF0CBF012000205DF808FB00BF79
:100B70004DF808EDFFF7EAFF34BF012000205DF8D3
:100B800008FB00BF4DF808EDFFF7E0FF94BF012020
:100B900000205DF808FB00BF4DF808EDFFF7CEFF21
:100BA00094BF012000205DF808FB00BF4DF808ED60
:100BB000FFF7C4FF34BF012000205DF808FB00BF31
:100BC0004FEA410212F5001215D211D56FF4787375
:100BD000B3EB625212D94FEAC12343F0004343EA18
:100BE000505311F0004F23FA02F018BF40427047F3
:100BF0004FF00000704750EA013005D111F000407D
:100C000008BF6FF0004070474FF00000704700BF12
:100C100053B94AB9002908BF00281CBF4FF0FF3163
:100C20004FF0FF3000F074B9ADF1080C6DE904CE5F
:100C300000F006F8DDF804E0DDE9022304B07047B7
:100C40002DE9F047089E04468846002B4BD18A4286
:100C5000154667D9B2FA82F24AB1C2F1200701FA09
:100C600002F320FA07F7954047EA030894404FEA59
:100C7000154E230CB8FBFEF71FFA85FC0EFB1788F8
:100C800043EA084307FB0CF1994209D9EB1807F135
:100C9000FF3080F01B81994240F21881023F2B44C3
:100CA0005B1AA4B2B3FBFEF00EFB103344EA03441C
:100CB00000FB0CFCA44509D92C1900F1FF3380F08E
:100CC0000781A44540F2048102382C4440EA0740E1
:100CD000A4EB0C0400271EB1D4400023C6E9004356
:100CE0003946BDE8F0878B4209D9002E00F0EB8031
:100CF0000027C6E9000138463946BDE8F087B3FA57
:100D000083F7002F47D18B4202D3824200F2FA8050
:100D1000841A61EB030301209846002EE0D0C6E957
:100D20000048DDE702B9FFDEB2FA82F2002A40F0A5
:100D30008F80491B4FEA154E1FFA85F80127B1FB3A
:100D4000FEFC230C0EFB1C1143EA014308FB0CF1D3
:100D5000994207D9EB180CF1FF3002D2994200F208
:100D6000CD808446591AA3B2B1FBFEF00EFB1014DD
:100D700043EA044408FB00F8A04507D92C1900F108
:100D8000FF3302D2A04500F2B6801846A4EB080457
:100D900040EA0C409FE7C7F1200CBB4022FA0CFE52
:100DA0004EEA030E01FA07F420FA0CF521FA0CF3CF
:100DB0004FEA1E482543B3FBF8F92C0C08FB193306
:100DC0001FFA8EFA44EA034309FB0AF49C4202FA32
:100DD00007F200FA07F10BD91EEB030309F1FF300C
:100DE00080F087809C4240F28480A9F1020973441C
:100DF0001B1BADB2B3FBF8F008FB103345EA03440C
:100E000000FB0AFAA24508D91EEB040400F1FF33E7
:100E10006BD2A24569D90238744440EA0940A0FB6C
:100E20000289A4EB0A044C45C2464B4654D351D028
:100E3000002E69D0B1EB0A0564EB030404FA0CFC44
:100E4000FD40FC404CEA0505C6E90054002747E791
:100E5000C2F1200320FA03F7954001FA02F021FACB
:100E600003F34FEA154E3843010CB3FBFEF71FFAAC
:100E700085F80EFB173341EA034107FB08F38B4269
:100E800004FA02F407D9691807F1FF3C2FD28B420C
:100E90002DD9023F2944CB1A81B2B3FBFEF00EFBE1
:100EA000103341EA034100FB08F38B4207D969186C
:100EB00000F1FF3C17D28B4215D902382944C91AD8
:100EC00040EA07473BE73746304609E70746E7E68B
:100ED0001846FBE64145ABD2B8EB020A69EB0E02BD
:100EE00001381346A4E76046E9E7184695E76746E8
:100EF000D1E781467CE702382C4447E7ACF1020C8D
:100F00002B442FE7384608E73746E9E600000000A3
:100F1000704700BF0000000000000000000000005B
:100F2000844641EA000313F003036DD1403A41D3F4
:100F300051F8043B40F8043B51F8043B40F8043BB3
:100F400051F8043B40F8043B51F8043B40F8043BA3
:100F500051F8043B40F8043B51F8043B40F8043B93
:100F600051F8043B40F8043B51F8043B40F8043B83
:100F700051F8043B40F8043B51F8043B40F8043B73
:100F800051F8043B40F8043B51F8043B40F8043B63
:100F900051F8043B40F8043B51F8043B40F8043B53
:100FA00051F8043B40F8043B51F8043B40F8043B43
:100FB000403ABDD2303211D351F8043B40F8043BE3
:100FC00051F8043B40F8043B51F8043B40F8043B23
:100FD00051F8043B40F8043B103AEDD20C3205D3F3
:100FE00051F8043B40F8043B043AF9D2043208D0EB
:100FF000D2071CBF11F8013B00F8013B01D30B885D
:1010000003806046704700BF082A13D38B078DD03A
:1010100010F003038AD0C3F10403D21ADB071CBF0C
:1010200011F8013B00F8013B80D331F8023B20F876
:10103000023B7BE7043AD9D3013A11F8013B00F8AF
:10104000013BF9D20B7803704B7843708B78837037
:101050006046704700000000000000000000000033
:1010600090F800F06DE9024520F007016FF0000CE8
:1010700010F0070491F820F040F049804FF0000490
:101080006FF00700D1E9002391F840F000F108006B
:1010900082FA4CF2A4FA8CF283FA4CF3A2FA8CF3A3
:1010A0004BBBD1E9022382FA4CF200F10800A4FA0A
:1010B0008CF283FA4CF3A2FA8CF3E3B9D1E904235E
:1010C00082FA4CF200F10800A4FA8CF283FA4CF395
:1010D000A2FA8CF37BB9D1E9062301F1200182FA4F
:1010E0004CF200F10800A4FA8CF283FA4CF3A2FA55
:1010F0008CF3002BC6D0002A04BF04301A4612BA63
:10110000B2FA82F2FDE8024500EBD2007047D1E965
:10111000002304F00305C4F100004FEAC50514F0F4
:10112000040F91F840F00CFA05F562EA05021CBFC5
:1011300063EA050362464FF00004A9E700000000DF
:1011400001F0FF01102A2BDB10F0070F08D010F878
:10115000013B013A8B422DD010F0070F42B3F6D17C
:10116000F0B441EA012141EA014122F007047FF095
:1011700000070023F0E80256083C85EA010586EAEC
:10118000010685FA47F5A3FA87F586FA47F6A5FA28
:1011900087F68EB9EED1F0BC01F0FF0102F0070234
:1011A00032B110F8013B013A83EA010313B1F8D1DF
:1011B0000020704701387047002D06BF35460338C0
:1011C000073815F0010F07D1013015F4807F02BFF9
:1011D000013015F4C03F0130F0BC0138704700BF4A
:1011E0004FEA410C7FEA6C5C02D150EA013C0AD123
:1011F0004FEA430C7FEA6C5C02D152EA033C02D115
:101200004FF0000070474FF00100704700000000F1
:1012100010B5134C82B02368019308F0C9FC06F0A6
:10122000E7FA01F08DFC01F0F3FB02F009FC01F09C
:10123000E7FE02F0ADFA0B4A0B490C4806F0B0F994
:10124000002002F0D5F902F03BFA019A23689A4295
:1012500004D102B0BDE8104006F062B900F088FB8E
:101260000008002020080020280800202815002061
:101270002DE9F04F2DED028B284CABB0236829935C
:10128000002002F03DFA0546012002F039FA064638
:10129000022002F035FA0F90032002F031FA0746DF
:1012A000042002F02DFA8046052002F029FA81463A
:1012B000062002F025FA8246072002F021FA184B98
:1012C000834693ED008B01F0F3FE0E9001F008FFD2
:1012D0000D9001F0D5FF0F990D9A0E9B00910A9089
:1012E000099208932A4633460E4901978DED068BE5
:1012F000CDE904ABCDE9028910A80FF041F8014611
:1013000010A801F04DFA299A23689A4204D12BB013
:10131000BDEC028BBDE8F08F00F02AFB0008002036
:10132000C8150020903701080000000000000000F0
:1013300070B50F4E0F4D336882B0002401932046E4
:1013400002F0DEF9FFF72EF90134082CE5E802017E
:10135000F5D106F00DF9FFF715F9019A3368064C3F
:101360009A42C4E9000101D102B070BD00F000FB57
:101370000008002040150020C815002000000000D3
:1013800010B53A4C82B023680193002002F0B8F9FE
:10139000642804DC072002F0B3F9642860DD012131
:1013A000002001F055F9012002F0AAF96428C7BF16
:1013B000012108460021012001F04AF9022002F033
:1013C0009FF96428CCBF01210021022001F040F9DF
:1013D000032002F095F96428CCBF012100210320ED
:1013E00001F036F9032002F08BF9642804DC0420B4
:1013F00002F086F964282EDD0121042001F028F98D
:10140000042002F07DF96428CCBF012100210520D1
:1014100001F01EF9052002F073F96428CCBF012108
:101420000021062001F014F9062002F069F9642871
:10143000019A236809DC9A4208BF002109D10720DC
:1014400002B0BDE8104001F003B99A4208BF012183
:10145000F5D000F08DFA0021042001F0F9F8CFE773
:101460000021084601F0F4F89DE700BF00080020C5
:101470002DE9F04F434B444D444C2A68D3E9008991
:1014800085B093ED047BD3E902AB03924046D4E9E7
:101490000E2349468DED007BFFF7F2F8D4E90C23CB
:1014A00006460F4650465946FFF7EAF802460B46F5
:1014B00030463946FEF72AFFD4E90A2306460F468E
:1014C000DDE90001FFF7DCF802460B4630463946FD
:1014D000FEF71CFF02460B4600202D49FEF714FFC5
:1014E000D4E9002306460F4640464946FFF7C8F8B0
:1014F000D4E902238046894650465946FFF7C0F892
:1015000002460B4640464946FEF700FFD4E9042355
:1015100080468946DDE90001FFF7B2F802460B4636
:1015200040464946FEF7F2FE02460B4600201849A7
:10153000184CFEF7E9FE0022174BFFF7A1F8174BF6
:10154000804689460022C3E900893046124B39465D
:10155000FFF796F8C4E9000149464046FFF730FB23
:1015600001F01EFE039A2B689A4208D1D4E90001CB
:10157000FFF726FB05B0BDE8F04F01F039BE00F0E3
:10158000F7F900BF0808002000080020801500209F
:101590000000F03FC01500200050844038150020A6
:1015A000F0B58B4C8B4E23688B4D83B0D6E90A0186
:1015B00001930022894BFFF7F9FA002871D000222D
:1015C0000023D5E90C01FFF7C9FA002869D00022F1
:1015D0000023D5E90E01FFF7C1FA78B900220023F4
:1015E000D5E90A01FFF7BAFA002878D000227B4B30
:1015F000D6E90E01FFF7DAFA002870D000220023A6
:10160000D5E90001FFF7AAFA002868D000220023DC
:10161000D5E90201FFF7A2FA00287FD000220023BB
:10162000D5E90401FFF79AFA002840F0AE800022C5
:101630006A4BD6E90001FFF7B9FA00286ED0002204
:101640000023D5E90001FFF789FA18B3002200232F
:10165000D5E90201FFF782FAE0B100225F4BD6E93B
:101660000401FFF7A3FAA8B100220023D5E90A017B
:10167000FFF774FA70B100220023D5E90C01FFF7DF
:101680006DFA38B100220023D5E90E01FFF766FAA2
:10169000002854D1019A23689A4240F08D8003B00B
:1016A000F0BD00220023D5E90A01FFF757FAB0B1D7
:1016B00000224A4BD6E90C01FFF778FA38B1002234
:1016C0000023D5E90E01FFF749FA002896D1002240
:1016D0000023D5E90C01FFF741FA002886D100224A
:1016E0003E4BD6E90001FFF761FA78B100220023F2
:1016F000D5E90201FFF732FA40B100220023D5E913
:101700000401FFF72BFA0028AED198E7002200234E
:10171000D5E90001FFF722FA0028BBD000222F4BA9
:10172000D6E90201FFF742FA00288FD000220023F9
:10173000D5E90401FFF712FA002895D186E70020C9
:1017400001F02EFD002001F053FD1DA7D7E9006731
:101750004FF4FA7006F08CFE2149224D1AA3D3E90A
:101760000023C1E900676FF4A270C5E9002301F00E
:1017700017FDD5E90001FFF723FA01F039FD4FF419
:10178000FA7006F075FE012084E7002001F008FDE4
:10179000002001F02DFD0CA7D7E900674FF4FA7087
:1017A00006F066FE0E490F4D05A3D3E90023C1E9FB
:1017B000006740F24510D8E700F0DAF8AFF3008098
:1017C00000000000005074C0000000000050744091
:1017D00000080020401500208015002000406F40C8
:1017E00038150020C0150020000000000000000097
:1017F0002DE9F04F2DED048B514BDFF864911B6800
:10180000DFF860B183B09FED4A8B01939FED4A9B57
:10181000FFF7FEFC4FF0000A0026002701F030FD24
:1018200060B1002001F0BCFC002001F0E1FC64206C
:1018300006F01EFE01F024FD0028F2D1DFF8088139
:10184000404DFFF79DFD4446FFF712FDFFF770FD89
:1018500005E04D4584ED008B04F108040DD052469F
:101860005B46F5E80201FFF7A1F90028F1D14D45EB
:10187000C4E9006704F10804F1D1FFF791FE0028E4
:10188000CCD1314932460C463B46D1E90A01FFF73B
:1018900065F988B132463B46D4E90C01FFF75EF9A1
:1018A00050B1FFF7E5FDE8E80267284B4345FAD160
:1018B000322006F0DDFDB1E7234932460C463B46B7
:1018C000D1E90201FFF74AF938B132463B46D4E983
:1018D0000401FFF743F90028E3D11B4932460C46C7
:1018E0003B46D1E90001FFF739F938B132463B46B2
:1018F000D4E90E01FFF732F90028D2D11449154B73
:10190000154881ED009B154900220C46C1E90023D2
:1019100001F046FCD4E90001FFF752F901F068FC40
:101920004FF4FA7006F0A4FDBDE700BFAFF30080EE
:10193000000000000000F03F00000000005084C0E4
:10194000000800204015002080150020C015002050
:10195000381500200050844076FDFFFFC0150020A0
:101960008015002000005940000000000000000029
:1019700000B5084B83B01A680192019A1B689A421D
:1019800005D1054803B05DF804EB05F099BFFFF7FA
:10199000EFFF00BF000800207037010800000000C2
:1019A00030B5104D81682B680F4A83B001930B68E6
:1019B00023F001030B608168946A03E0936A1B1BA8
:1019C000C72B09D8086810F00100F7D1019A2B68DD
:1019D0009A4204D103B030BD4FF0FF30F6E7FFF775
:1019E000C7FF00BF00080020B04700200000000033
:1019F00070B51C4E82B03368019311F00C0F0D4688
:101A0000044610D0C268117A52683D238B4013609F
:101A10000378032B21D0062263682270DB6813B1A0
:101A2000002120469847AA060BD563685B6873B10E
:101A300001993268914213D1204602B0BDE870404E
:101A40001847EB0603D563689B68002BF0D1019A19
:101A500033689A4204D102B070BDFFF7A1FFDAE704
:101A6000FFF786FF000800200000000000000000D3
:101A7000F0B5284D83B02B68019306F0C9FF06F03E
:101A80003FF8254B1E69F20715D55A69234C42F0E1
:101A900001025A612778BB1F012B2AD905226368EE
:101AA00022701B680BB120469847042F27D0022FC5
:101AB00025D003232370B30710D5174A174C536959
:101AC00043F0020353612378032B1DD06368DB6866
:101AD0000622227013B101211048984706F038F809
:101AE000019A2B689A4213D103B0BDE8F04008F088
:101AF0001FB8019A2B689A420AD103B0F0BD0223A5
:101B00002370B307EAD5D8E72046FFF749FFDDE7A2
:101B1000FFF72EFF0008002000000550D015002020
:101B20002DE9F0412F4C0578266882B0012D0196F1
:101B300006D0019A23689A4252D102B0BDE8F081E2
:101B4000294DA842F5D10E4690461F46274AE8681F
:101B50002B460C210AF08CFB002839D1D5E9023242
:101B6000126828339360EB681A68042151611B687E
:101B7000C3F80C80EB681A6817611B68B6085E60D2
:101B80002B694FB343F480232B61E968184A096835
:101B90000B60EB6819680B6843F001030B60536B33
:101BA00043F0010353630B214E200AF041F8D5E9BD
:101BB0000113DA6842F00102DA60DA6842F00202E8
:101BC000DA600A6922F4804222F001021A60B0E76A
:101BD000084805F075FEC1E723F480232B61D4E7A4
:101BE000FFF7C6FE00080020D0150020F1190008FC
:101BF00000380240C037010800000000000000006B
:101C000030B5184C0378226883B0022B019205D0BE
:101C1000019A23689A4223D103B030BD124B9842F7
:101C20000546F5D18168114A0B6823F4804323F0FF
:101C300001030B608168CB6823F00F03CB60536B0B
:101C400023F0010353634E200AF01AF8019A236827
:101C50009A4205D1E86803B0BDE830400AF070BB95
:101C6000FFF786FE00080020D01500200038024053
:101C700000B50F4B0278196883B0022A01910ED18A
:101C800081680A6842F002020A6081680A6842F4C8
:101C900080420A6081680A6842F001020A60019A83
:101CA0001B689A4202D103B05DF804FBFFF760FEA7
:101CB00000080020000000000000000000000000FC
:101CC00000B50F4B0278196883B0022A01910ED13A
:101CD00081680A6822F002020A6081680A6842F498
:101CE00080420A6081680A6842F001020A60019A33
:101CF0001B689A4202D103B05DF804FBFFF738FE7F
:101D000000080020000000000000000000000000AB
:101D10002DE9F043254D83B02C680194DDF828901F
:101D20000F4616469846044618B111B1204B9A4208
:101D30002FD9204805F0C4FD202383F3118806F035
:101D40009FFE05F05DFE2378012B02D0194805F0B7
:101D5000B7FD4246314620464B466760FFF7E0FE3E
:101D60000223237005F06CFE06F0A2FE124B1A68E7
:101D70009A4204D0996993688A689A420FD30023E3
:101D800083F31188019A2B689A420CD103B0BDE805
:101D9000F0839307CDD1B8F1000FCDD1C9E7074843
:101DA00005F08EFDEBE7FFF7E3FD00BF0008002024
:101DB000FCFF0300F0370108B0470020E0370108BE
:101DC00030B51C4D83B02B680193044658B32023D3
:101DD00083F3118806F054FE05F012FE2378022BDF
:101DE00002D0154805F06CFD2046FFF709FF0123DE
:101DF000237005F025FE06F05BFE104B1A689A4230
:101E000004D0996993688A689A4208D3002383F3BF
:101E10001188019A2B689A4209D103B030BD084855
:101E200005F04EFDF2E7044805F04AFDCFE7FFF765
:101E30009FFD00BF0008002000380108B0470020C7
:101E4000E037010800000000000000000000000072
:101E500030B51C4D83B02B680193044658B3202342
:101E600083F3118806F00CFE05F0CAFD2378022BDF
:101E700002D0154805F024FD2046FFF7F9FE0423A3
:101E8000237005F0DDFD06F013FE104B1A689A4230
:101E900004D0996993688A689A4208D3002383F32F
:101EA0001188019A2B689A4209D103B030BD0848C5
:101EB00005F006FDF2E7044805F002FDCFE7FFF765
:101EC00057FD00BF0008002010380108B04700206F
:101ED000E0370108000000000000000000000000E2
:101EE00030B51C4D83B02B680193044658B32023B2
:101EF00083F3118806F0C4FD05F082FD2378022BE0
:101F000002D0154805F0DCFC2046FFF7D9FE03237C
:101F1000237005F095FD06F0CBFD104B1A689A4230
:101F200004D0996993688A689A4208D3002383F39E
:101F30001188019A2B689A4209D103B030BD084834
:101F400005F0BEFCF2E7044805F0BAFCCFE7FFF766
:101F50000FFD00BF0008002030380108B047002006
:101F6000E037010800000000000000000000000051
:101F700030B51A4D83B02B680193044638B3202343
:101F800083F3118806F07CFD05F03AFD022320461C
:101F90002370FFF735FE0123237005F051FD06F095
:101FA00087FD0F4B1A689A4204D0996993688A6832
:101FB0009A4208D3002383F31188019A2B689A422E
:101FC00009D103B030BD074805F07AFCF2E70648B6
:101FD00005F076FCD3E7FFF7CBFC00BF000800203C
:101FE000B0470020E0370108403801080000000039
:101FF00000B5074B07491A68087083B00192019A2F
:102000001B689A4202D103B05DF804FBFFF7B0FCF5
:1020100000080020E415002000000000000000007F
:1020200000B5174B174A93F90030116883B001913E
:1020300001995BB1012B18D0022B13680ED0994285
:102040004FF0000019D103B05DF804FB136899420A
:1020500013D103B05DF804EB00F0DABA99420CD169
:1020600003B05DF804EB00F093BA1368994204D111
:1020700003B05DF804EB00F0ABBAFFF779FC00BFEA
:102080003C080020000800200000000000000000C4
:1020900010B51B4B1B4C93F90030226882B00192A3
:1020A000B3B1012B21D0022B06D00020019A236866
:1020B0009A4223D102B010BD134B1B788BB1019A09
:1020C00023689A421AD102B0BDE8104000F060BA0D
:1020D000019A23689A4211D102B0BDE8104000F085
:1020E00097BA00F055FA4000E0E7019A23689A4257
:1020F00004D102B0BDE8104000F06ABAFFF738FC26
:102100003C080020000800203D08002000000000DE
:10211000F0B5124F83B03B68019300F051F9104BBA
:1021200093F90030022B064606D0019A3B689A428A
:10213000304610D103B0F0BD0A4B1C7824B1F4E74F
:10214000735D33550134A4B2FFF7A2FF6500ADB251
:102150008542F5D3E9E7FFF70BFC00BF000800203C
:102160003C0800203D0800200000000000000000A6
:1021700000B5084B08491A6883B000200192019A03
:102180001B6808709A4202D103B05DF804FBFFF7A8
:10219000EFFB00BF00080020EB150020000000004E
:1021A00010B5104C82B023680193202383F311886B
:1021B00006F096FC05F064FC0B4B0C4801221A70EB
:1021C00006F096FF05F07CFC06F0A2FC002383F3EA
:1021D0001188019A23689A4201D102B010BDFFF71D
:1021E000C7FB00BF00080020F415002040080020B5
:1021F00010B50F4C0F4B2268197082B0202301924A
:1022000083F3118806F06CFC05F03AFC0A4806F0EE
:102210006FFF05F055FC06F07BFC002383F311886B
:10222000019A23689A4201D102B010BDFFF7A0FBCA
:1022300000080020E81500204008002000000000F1
:1022400000B51F4A1F4B127818681F4983B00190D0
:1022500001208242087006D0019A1B689A422CD154
:1022600003B05DF804FB1949194A0978D268814224
:10227000126811D0174818490078096801281068B9
:1022800006D000030ED51069884212D0D160E3E772
:102290000003FBD41161DFE71068104900030968EF
:1022A000F8D5F3E7D0688842F4D10C490968116188
:1022B000D2E70A490968D160CEE7FFF759FB00BFB2
:1022C000EA15002000080020EB150020E51500208D
:1022D000D0150020E6150020EC150020F015002098
:1022E00030B51B4D1B4C2B78226885B0012B039217
:1022F00025D0FFF7CDFE184B1B78024653B9B0F539
:10230000164F20D8154900930B6815481549FFF75B
:10231000FFFC0BE0B0F5964F15D813490F4B096839
:102320001B680F4800910F49FFF7F2FC01232B7047
:102330000020039A23689A4208D105B030BD0848AE
:10234000FFF73EFDD5E74FF0FF30F2E7FFF710FB58
:10235000E915002000080020EA150020EC150020F7
:10236000D015002050380108F015002000000000B2
:1023700010B50F4C0F48236882B0019306F080FD22
:102380000D4806F05DFF0D4B0A481B7843B106F07F
:10239000AFFD0020019A23689A4206D102B010BD19
:1023A00006F0A6FD4FF0FF30F4E7FFF7E1FA00BFBB
:1023B000000800204808002040080020F4150020F4
:1023C00070B5294B294C1878294D236882B00193A8
:1023D0002B7858B9012B03D0264A012310682B70A3
:1023E000019A23689A423DD102B070BD012B37D0CB
:1023F000214E3378012B33D0204B1B78FBB9204B77
:102400001C4ADB6811681B681A68100307D5DA6874
:102410008A424FF0010221D03270D868E0E71A6991
:102420008A424FF0010208D032701869D8E71A6961
:10243000096891424FF00102F6D12A70F5E7FFF7E3
:1024400097FF0F4B0B49DB681B681A681203EED528
:10245000DA68096891424FF00102DDD12A70DCE7A9
:102460000020BDE7FFF784FAEA15002000080020ED
:10247000E5150020EC150020E6150020EB150020E6
:10248000D015002000000000000000000000000047
:1024900010B5084B084C1A68084882B0019201999F
:1024A0001A68002391422370037001D102B010BD5D
:1024B000FFF75EFA00080020E5150020E615002071
:1024C00010B5174A174B1278196882B00191F2B112
:1024D000154A1648164C11780022027022701548D1
:1024E00051B101991B680270994216D1124802B08D
:1024F000BDE81040FFF7F4BC019A1B6801709A42D6
:102500000BD10D4802B0BDE81040FFF7A1BC019A05
:102510001B689A4201D102B010BDFFF729FA00BF33
:10252000E915002000080020E7150020E61500202E
:10253000E5150020F4150020D01500200000000053
:1025400010B50D4B0D4C1A78216882B0012A01910B
:1025500008D0019A23689A420CD102B0BDE810401D
:10256000FFF7BEBE0649074800220A701A70FFF73F
:10257000FFFCEEE7FFF7FCF9E9150020000800205A
:10258000E8150020D0150020000000000000000029
:1025900010B50A4B0A4A1988146858881B7982B00A
:1025A000022B019400FB01F00199136818BF400051
:1025B000994201D102B010BDFFF7DAF9F8150020F9
:1025C00000080020000000000000000000000000E3
:1025D00010B50A4B0A4A1988146858881B7982B0CA
:1025E0000D2B019400FB01F00199136818BF400006
:1025F000994201D102B010BDFFF7BAF900160020D0
:1026000000080020000000000000000000000000A2
:1026100010B50A4B0A4A1988146858881B7982B089
:10262000442B019400FB01F00199136818BF40008E
:10263000994201D102B010BDFFF79AF908160020A7
:102640000008002000000000000000000000000062
:1026500070B5514E82B0336801930C46072800F2E2
:102660008B80DFE800F0131D27313B454F04012923
:10267000019A336850D99A4240F08C800A22002196
:10268000032002B0BDE8704000F09AB9019A3368A7
:102690009A427FD1002002B0BDE8704000F010B92E
:1026A0000129019A33685CD99A4273D10021084606
:1026B0000A22E6E7019A33689A426BD1012002B000
:1026C000BDE8704000F0FCB80129019A33683DD99B
:1026D0009A425FD10A2200210120D2E7019A336891
:1026E0009A4257D1022002B0BDE8704000F0E8B82D
:1026F0000129019A33681ED99A424BD10A2200213E
:102700000220BEE7019A33689A4243D1032002B007
:10271000BDE8704000F0D4B89A423BD101EB81048F
:102720006100002301F0FE011A46032002B0BDE85B
:10273000704000F01DB99A422CD101EB8104610078
:10274000002301F0FE011A460220EFE79A4221D150
:1027500001EB81046100002301F0FE011A46012013
:10276000E4E79A4216D101EB81040023610001F0F5
:10277000FE011A461846D9E70025284621460135AC
:10278000FFF766FF082DF8D1019A33689A4201D10C
:1027900002B070BDFFF7ECF8000800200000000058
:1027A00010B50A4B82B01A680192019C1B689C42CA
:1027B0000AD1074B1C6824680A460146184623467E
:1027C00002B0BDE810401847FFF7D2F8000800201B
:1027D000E4550020000000000000000000000000A0
:1027E00070B5164E16483368154D82B005224FF469
:1027F000807101930BF064FB20246B6983F4807378
:102800006B61012005F034FE631E13F0FF04F4D168
:102810004FF4807140F20622298309480BF050FBE7
:10282000019A33689A4206D10649074802B0BDE8CA
:10283000704007F09DBCFFF79BF800BF0008002028
:1028400000040240703801083052002000000000EF
:1028500000B50C4A0C4B1278196883B0012A01911B
:10286000019A1B6804D09A4209D103B05DF804FBB9
:102870009A4204D103B05DF804EBFFF7B1BFFFF754
:1028800077F800BF30520020000800200000000050
:1028900000B5084B83B01A680192019A1B689A42EE
:1028A00005D1054803B05DF804EB07F0A9BCFFF7BC
:1028B0005FF800BF00080020305200200000000038
:1028C00070B5294D82B02B6801930E46032841D87C
:1028D000DFE800F01A120A02012922D9234A5369BB
:1028E00083F40063536116E0012926D91F4A536916
:1028F00083F4806353610EE0012918D91B4A5369A0
:1029000083F04003536106E001291CD9174A53693B
:1029100083F020035361019A2B689A4218D102B0C8
:1029200070BD124B4FF4006229B15A83F3E70F4B8D
:1029300040220029F9D11A83EDE70C4B4FF4806255
:102940000029F8D0F1E7094B20220029F3D0ECE769
:10295000FFF70EF80024E0B231460134FFF7B0FF74
:10296000042CF8D1D7E700BF00080020000C02407B
:102970002DE9F0410E4D82B02C6801948846044642
:1029800017461E4601F09CF808B901F081F8094A83
:102990000198296804EB44041319884202F8048062
:1029A0005F709E7002D102B0BDE8F081FEF7E0FFDB
:1029B00000080020101600200000000000000000A9
:1029C000F0B50F4D83B02B68019304460E461746B1
:1029D00001F076F878B10B4804EB44042044835DA1
:1029E00033B98755019A2B689A4207D103B0F0BDDD
:1029F00000238355F6E701F04BF8ECE7FEF7B8FF4C
:102A00000008002010160020000000000000000058
:102A1000F0B5104F104C3B6883B0002501932E4653
:102A20000021E8B2FFF74CFF01F04AF868B1013528
:102A3000042D26706670A67004F10304F0D1019A8B
:102A40003B689A4204D103B0F0BD01F021F8EEE7F3
:102A5000FEF78EFF00080020101600200000000086
:102A600030B5094B094D044607CB83B02B68019361
:102A7000206001982B6861609842A26001D103B088
:102A800030BDFEF775FF00BF1016002000080020C3
:102A90002DE9F043254E83B034680194042A9DF853
:102AA0002890144605460F46984639D9B9F1000FCB
:102AB00014BF00224FF08052640002EB0863013C17
:102AC0001C4405F00F0527F01F07202383F311880E
:102AD00005F0D6FF3D4304F093FF154B1035DD6044
:102AE0001C6104F0ADFF05F0E3FF124B1A689A4237
:102AF00004D0996993688A689A420DD3002383F3BE
:102B00001188BFF36F8FBFF34F8F019A33689A42DA
:102B10000AD103B0BDE8F083074804F0D1FEEDE729
:102B2000064804F0CDFEC1E7FEF722FF00080020B2
:102B300090ED00E0B047002000390108E0380108BE
:102B400030B5224D224C2B68224A85B0039363682E
:102B500043F004036360536A43F4803353622023D9
:102B600083F3118805F08CFF04F04AFF17221A4BFB
:102B7000E260236104F064FF05F09AFF174B1A68C6
:102B80009A4204D0996993688A689A4218D30020BF
:102B900080F31188BFF36F8FBFF34F8F03231D2284
:102BA00000904FF00051FFF773FF094A536843F05C
:102BB00001035360039A2B689A4205D105B030BDDA
:102BC000074804F07DFEE2E7FEF7D2FE0008002091
:102BD00090ED00E000ED00E009000010B04700209B
:102BE00000390108000000000000000000000000A3
:102BF00070B51A4D1A4C1B4E0FCD0FC49EB02A68EB
:102C0000336822801D93EFF30981682203A8FEF741
:102C100087F9154B9D6AAA0714D4EB0708D5124B08
:102C200008995B6B114A00910D4880210DF060FB03
:102C30001D9A33689A420FD109481EB0BDE8704012
:102C400004F03EBE099A5B6B0092A4F11000084AA2
:102C500080210DF04DFBE0E7FEF78AFEC438010845
:102C60001C1600200008002000ED00E0A03801083C
:102C70008038010800000000000000000000000093
:102C800000B51F4B0278196883B00191E2B11D4A6B
:102C90004FF4005111834278EAB11A4A4FF480513F
:102CA00011838278F2B1174A4FF480411183C278C0
:102CB000FAB9144A4FF400415183019A1B689A42B1
:102CC0001CD103B05DF804FB0E4A4FF40051518350
:102CD0004278002AE1D10B4A4FF480515183827827
:102CE000002AE0D1074A4FF480415183C278002A7C
:102CF000DFD0044A4FF400411183DEE7FEF738FECF
:102D00000008002000100240000000000000000049
:102D100000B51F4B0278196883B00191E2B11D4ADA
:102D20004FF4007111834278EAB11A4A4FF480716E
:102D300011838278F2B1174A4FF400611183C2788F
:102D4000FAB9144A4FF480615183019A1B689A4280
:102D50001CD103B05DF804FB0E4A4FF4007151839F
:102D60004278002AE1D10B4A4FF480715183827876
:102D7000002AE0D1074A4FF400615183C278002A4B
:102D8000DFD0044A4FF480611183DEE7FEF7F0FDE7
:102D900000080020001002400000000000000000B9
:102DA00030B50C4A0C4B116883B04FF400550191BB
:102DB0004FF480544FF400414FF480405D835C83B6
:102DC0005883598301991368994201D103B030BDEA
:102DD000FEF7CEFD000800200010024000000000B9
:102DE00030B50C4A0C4B116883B04FF4007501915B
:102DF0004FF480744FF480614FF400605D835C8316
:102E00005883598301991368994201D103B030BDA9
:102E1000FEF7AEFD00080020001002400000000098
:102E200010B50B4C0B48236882B099220021019306
:102E300007F0D6FB019A23689A4206D10548002183
:102E400002B0BDE8104007F0B3BCFEF791FD00BF33
:102E50000008002090550020000000000000000045
:102E600010B50B4C0B48236882B0992200210193C6
:102E700007F0B6FB019A23689A4206D10548002163
:102E800002B0BDE8104007F093BCFEF771FD00BF33
:102E900000080020AC5500200000000000000000E9
:102EA00000B5084B83B01A680192019A1B689A42D8
:102EB00006D10548002103B05DF804EB07F0E0BB44
:102EC000FEF756FD0008002090550020000000008D
:102ED00000B5084B83B01A680192019A1B689A42A8
:102EE00006D10548002103B05DF804EB07F0C8BB2C
:102EF000FEF73EFD00080020AC5500200000000059
:102F000070B51A4C1A4E2378326882B0022B0192A7
:102F1000A26811D165781748013505F0070500EB67
:102F20008500904763686570013B6360019A336870
:102F30009A4219D102B070BD012B08D001993368B3
:102F4000994211D10C4802B0BDE870401047657835
:102F50000848013D05F0070500EB850090476368D0
:102F6000657001336360E1E7FEF702FDB8160020EB
:102F700000080020A0390108903901080000000075
:102F800070B51A4C1A4E2378326882B0012B019228
:102F9000A26811D165781748013505F0070500EBE7
:102FA000850090476368657001336360019A3368F8
:102FB0009A4219D102B070BD022B08D00199336832
:102FC000994211D10C4802B0BDE8704010476578B5
:102FD0000848013D05F0070500EB85009047636850
:102FE0006570013B6360E1E7FEF7C2FC9C160020C0
:102FF00000080020A03901089039010800000000F5
:1030000070B51D4E1D4A1E4B30681E491E4C916006
:1030100082B00021D46001901C4C1D481D4D9D6064
:10302000117051705160106154611B481B4A1C4D56
:10303000D8601C48197059705960C3E90425FFF71E
:103040001FFE1848FFF764FE1749204607F030FAC4
:10305000204607F065FB2846144907F029FA019A33
:1030600033689A4205D1284602B0BDE8704007F0A7
:1030700057BBFEF77DFC00BF00080020B8160020FB
:103080009C160020812C0008212E0008905500205D
:10309000A12E0008112D0008612E0008D12E000875
:1030A000AC55002090390108503901081039010849
:1030B00000B5074B07491A68886983B00192019AE5
:1030C0001B689A4202D103B05DF804FBFEF750FC86
:1030D000000800209C1600200000000000000000F6
:1030E00000B5074B07491A68886983B00192019AB5
:1030F0001B689A4202D103B05DF804FBFEF738FC6E
:1031000000080020B81600200000000000000000A9
:1031100030B5204D85B02B68039340F24C43994263
:10312000044628DCA3F69803994212DB4B00002BDF
:1031300081612BD10370036998474FF47A71039A28
:103140002B689A4220D1606905B0BDE8304007F095
:10315000FFB98361104B02225B42227040F2892248
:1031600093420E4991FBF3F189B208DC0191E368C7
:1031700098470199E3E70122836102702D210191B3
:10318000236998470199DAE7FEF7F2FBE3DD0122B4
:103190000270E3E70008002068F7FFFFA086010047
:1031A00030B50E4C83B023680193054604F0A8FAAD
:1031B000019A236840B99A420ED10948294603B0C2
:1031C000BDE83040FFF7A4BF9A4205D1284603B0BE
:1031D000BDE8304004F0ACBAFEF7CAFB000800209E
:1031E0009C1600200000000000000000000000000D
:1031F00030B50E4C83B023680193054604F080FA85
:10320000019A236840B99A420ED10948294603B071
:10321000BDE83040FFF77CBF9A4205D1284603B095
:10322000BDE8304004F09CBAFEF7A2FB0008002085
:10323000B8160020000000000000000000000000A0
:103240000A490B4B09680B4A82B0202001914021AA
:1032500058834FF4806559834FF400644FF48040E5
:1032600004215D835C8358835183FEE700080020BE
:10327000000C0240000402400000000000000000BA
:1032800030B5104C104B2268104983B00192186978
:103290001A6909691B69019D2468C2F3C032C1F330
:1032A000001102EB4102C3F38033C0F3403003EB63
:1032B0004203A54200EB430001D103B030BDFEF74D
:1032C00057FB00BF0008002000080240000C02402D
:1032D00010B51E491E4A0B78106882B0013B019060
:1032E000072B0AD8DFE803F012151C1F26290F044C
:1032F00018480824012304830B700199136899422C
:1033000021D102B010BD08230B70F6E702230B7029
:10331000F3E711484FF48054032304830B70ECE768
:1033200004230B70E9E70C484FF480440523048321
:103330000B70E2E706230B70DFE70648042407233F
:1033400004830B70D9E7FEF713FB00BF581A002067
:1033500000080020001002400004024000000000AD
:1033600030B50C4B0C4918680C4A83B04FF48045BB
:1033700001904FF480504883042408204D835483E7
:103380005083019A1B689A4201D103B030BDFEF709
:10339000EFFA00BF000800200004024000100240C5
:1033A0002DE9F04F594D5A4AAB695A4E9A61A3B074
:1033B00003AB802205AC30680092CDE903331A4696
:1033C000554B219021460AA8CDE905440024CDE9BA
:1033D000074409941C4604F0FBF80AA94F4A5048D8
:1033E000DFF860B104F01CF904F11C08AB6993F834
:1033F000219019F004096FD14A4805F0E1FB4A4BCE
:103400004A4819691F681A6AA260C4E900711F6BF3
:103410005969E7605F685A6AA261C4E904715F6B29
:10342000E7619F6B99699A6AE7629F6827626162A8
:10343000DF68D969A262DA6ADB6B61632763E363E1
:103440004946A263426A50F8043F9A4296BF9B1ACB
:10345000016403644045F5D1802221460AA804F0A6
:103460000FF9DFF8E4C09CF80030002BBED0DFF885
:10347000DCA09AF80090B9F1000F34D0B9F1010F37
:10348000B4D12B4ADFF8C8E002F12009714652F8A6
:10349000040B51F8043F4A4503440B60F7D1254A19
:1034A00013780133DBB2642B13709FD1224A234877
:1034B0005EF8043F8BFB0371DB17C3EB61137045B0
:1034C00042F8043BF4D100238CF80030AB6993F848
:1034D000219019F004098FD0219A33689A4213D1B0
:1034E00023B0BDE8F08F2022494613480CF0B0FE0F
:1034F0002022494612480CF0ABFE0E4A012382F806
:1035000000908AF8003071E7FEF732FAB0470020E9
:10351000C0390108000800205C170020003A0108AB
:10352000281500205C080020F41600205817002001
:103530009C17002035170020BC17002054170020CE
:10354000381700201F85EB51341700203617002054
:103550003417002000000000000000000000000000
:1035600070B502691E4D52882B6882B006460C4623
:103570001C480193920000210CF06AFE33695B88BD
:103580005BB1184AA11E002331F8020F42F8040B68
:103590003069408801339842F6D8202383F311889C
:1035A00005F09EFA04F06CFA04F0FAFA0E4883680B
:1035B000002B0FDD04F084FA05F0AAFA002383F350
:1035C0001188019A2B68094901209A42087004D198
:1035D00002B070BD05F02CFBECE7FEF7C9F900BFA7
:1035E00000080020F41600205C080020581A002073
:1035F000F0B5294D294C2E78236885B0012E039310
:1036000005D0039A23689A4244D105B0F0BD012841
:1036100007462CD00021284606F0E2FB2846204928
:10362000204A334606F05CFC1F49204806F040FF64
:103630004FF4967200211D4806F0D2FF00211B486E
:1036400007F0B6F8194807F06BF84FF482720121C1
:10365000164806F0C5FF002300931548154B40227D
:103660004FF41E7104F0ACFE134B1860C9E70E4E08
:1036700041F66A0328460021736006F0B1FB284634
:103680003B46084A064906F02BFC3146074806F03F
:103690000FFFCDE7FEF76CF9D44E002000080020A4
:1036A000D0390108D4160020680800207455002085
:1036B000E0170020A1330008581700200000000088
:1036C00030B50C4D0C4A2B680C4C83B00021019393
:1036D000012311702370142004F0CAFE2378002BFC
:1036E000F9D1019A2B689A4201D103B030BDFEF79F
:1036F0003FF900BF000800203617002034170020D3
:1037000010B50E4A82B013680193072811D80C49EE
:1037100000F1180300F1100451F8233051F824008F
:10372000C01A20EAE07001991368994203D102B0EF
:1037300010BD0020F7E7FEF71BF900BF00080020CE
:103740005C170020000000000000000000000000E6
:1037500000B50A4B0A481B680A4C87B069460593B6
:1037600001224FF4F07305F0A3FD012005F088FE5F
:10377000684605F0E5FD2060F7E700BF000800207F
:10378000E85500205C1A0020000000000000000046
:1037900010B50C4C0C4923680C4884B0039307F017
:1037A000EFFC002300934022094B0A484FF41E719E
:1037B00004F006FE039A23689A4201D104B010BDBA
:1037C000FEF7D6F8000800209C080020E4550020F1
:1037D00051370008601A00200000000000000000BF
:1037E0002DE9F04F884C894AA3698949126899618B
:1037F00085B0002332200392029304F039FEDFF8F3
:103800003082DFF830A2DFF81C92DFF80CB22025FE
:1038100085F3118805F034F904F0F2F8A66A04F093
:103820000FF905F045F92368A34207D0A2699B6808
:1038300092689A4202D2774804F042F8002383F358
:10384000118885F3118805F01BF904F0D9F898F870
:103850000030012B00F0A38004F0F2F805F028F905
:103860002368A34207D0A2699B6892689A4202D259
:10387000684804F025F8002383F311889AF8003093
:10388000012B06D1FEF71CFEFEF772FD002840F06A
:103890008A8040F6FC72FF215F480CF0D9FC5F4B38
:1038A0001B78012B77D04FF06533C9E90033C9F895
:1038B00008305B4807F06CFD574B5A4A58480C21BA
:1038C00007F0E6FD564807F0A3FD00230293029B94
:1038D00042F20F72934206D800BF029B013302935B
:1038E000029B9342F8D99BF80000FEF781FB9AF8FF
:1038F0000030012B49D19BF80130B72B88D1FEF75E
:103900008FFB494E8308A6FB0323C3F3CF17009711
:10391000FEF786FB8308A6FB0323DB09C3EB8323A7
:10392000A0EB83030193FEF7F3FB404B18603FB31A
:1039300000273E463A4807F02BFD3C4B38481A68B2
:10394000354B3A4440F6FC7107F0A2FD344807F0CD
:103950005FFD00230293062E029B48D943F697226F
:10396000934206D800BF029B01330293029B93420D
:10397000F8D90136009AB3B29A4207F6FC77D9D843
:10398000019B9BB9FEF784FD42E706F13201304608
:1039900004F0AEFD3CE72348FFF762F889E7032017
:1039A00004F0C6FA58E7FEF7CBFD31E71C4807F0F4
:1039B000EFFC1E4B009A1E681948174B0199C2EB89
:1039C000822206EB820207F063FD154807F020FD16
:1039D00000230293029B43F697229342D2D800BF62
:1039E000029B01330293029B9342F8D9CAE741F24A
:1039F00087329342BDD800BF029B01330293029BE2
:103A00009342F8D9B5E700BFB04700200008002076
:103A1000303A0108103A0108E41C0020E01C0020A4
:103A20000C5500206032002001020820DC1C002020
:103A3000E02C0020D81C0020000000000000000046
:103A400010B50D4C0D4923680D4884B0039307F061
:103A500057FC0023009340220A4B0B484FF4AF6100
:103A600004F0AEFC039A236808499A42086001D129
:103A700004B010BDFDF77CFF00080020203A0108CB
:103A80000C550020E1370008E82C0020E42C002031
:103A900000B5084B08491A6883B001200192019AC9
:103AA0001B6808709A4202D103B05DF804FBFDF771
:103AB0005FFF00BF00080020E01C002000000000A5
:103AC00000B5074B07491A68087883B00192019A3C
:103AD0001B689A4202D103B05DF804FBFDF748FF72
:103AE00000080020E01C0020000000000000000092
:103AF00000B5084B83B01A680192019A1B689A427C
:103B000005D1054803B05DF804EB05F0B9B9FDF740
:103B10002FFF00BF00080020A808002000000000C0
:103B200000B5084B83B01A680192019A1B689A424B
:103B300005D1054803B05DF804EB05F0D9B9FDF7F0
:103B400017FF00BF00080020A808002000000000A8
:103B500070B50D4C82B0236801930D1E06460DDD35
:103B6000284605F05DFF18B90C2333604FF0FF3095
:103B7000019A23689A4205D102B070BD034803F050
:103B80009FFEEDE7FDF7F4FE00080020403A010833
:103B900000B5064B83B01A680192019A1B689A42DD
:103BA00002D103B05DF804FBFDF7E2FE000800203F
:103BB00000B5074B83B01A680192019A1B689A42BC
:103BC00004D103B05DF804EB05F05AB9FDF7D0FE5F
:103BD00000080020000000000000000000000000BD
:103BE00000B5074B83B01A680192019A1B689A428C
:103BF00004D103B05DF804EB05F07AB9FDF7B8FE27
:103C0000000800200000000000000000000000008C
:103C100000B5074B83B01A680192019A1B689A425B
:103C200004D103B05DF804EB05F08ABAFDF7A0FEFD
:103C3000000800200000000000000000000000005C
:103C400000B5074B83B01A680192019A1B689A422B
:103C500004D103B05DF804EB03F07AB8FDF788FEF9
:103C6000000800200000000000000000000000002C
:103C700010B50C4C82B02368019315290CD8012291
:103C8000094B8A4013403BB101740020019A23681C
:103C90009A4204D102B010BD6FF00700F6E7FDF7BD
:103CA00067FE00BF000800200B003000000000008D
:103CB00000B5074B83B01A680192019A1B689A42BB
:103CC00004D103B05DF804EB02F00ABBFDF750FE2F
:103CD00000080020000000000000000000000000BC
:103CE00010B5074B82B01C680194019C1B689C4274
:103CF00004D102B0BDE8104002F0B2B9FDF738FEC1
:103D0000000800200000000000000000000000008B
:103D100010B5074B82B01C680194019C1B689C4243
:103D200004D102B0BDE8104002F0B2BAFDF720FEA7
:103D3000000800200000000000000000000000005B
:103D40002DE9F04182B002AB0024364D03F8054D59
:103D500090462A6801920F461A460121064603F052
:103D60001FFA0446E0B9B8F1010F9DF803301FD0E7
:103D7000042F53D8DFE807F0322D0328230003F087
:103D8000FB07BB420CD03A460121304603F0A8F9AC
:103D9000044628B986F830717169304602F0A0FAFD
:103DA000019A2B689A42204636D102B0BDE8F081D4
:103DB000042F33D8DFE807F02B26211C170003F06F
:103DC0007F07BB42DFD1EBE703F0BF07BB42DAD18D
:103DD000E6E703F0D707BB42D5D1E1E703F0EF07F1
:103DE000BB42D0D1DCE743F08007BB42CBD1D7E761
:103DF00043F04007BB42C6D1D2E743F00407BB42C1
:103E0000C1D1CDE743F02807BB42BCD1C8E743F09E
:103E10001007BB42B7D1C3E7FDF7AAFD6FF003045B
:103E2000BEE700BF00080020000000000000000006
:103E300030B583B002AA114D002302F8053D0C46AF
:103E40002B680193012103F0ABF978B99DF8033099
:103E5000C3F30011C3F3C0022170A270C3F3800149
:103E6000C3F38012DB096170E2702371019A2B6841
:103E70009A4201D103B030BDFDF77AFD0008002061
:103E800070B5134C84B00E46236803930DF10602FF
:103E9000F821054603F09CF928B1039A23689A4259
:103EA00013D104B070BD02AA0421284603F0A8F97A
:103EB0000028F2D1BDF8062012B93368AB61ECE7F7
:103EC000029BB3FBF2F33360F8E7FDF751FD00BF4F
:103ED00000080020000000000000000000000000BA
:103EE00000B5084B027F18680A7083B00190019AF0
:103EF0001B689A4203D1002003B05DF804FBFDF774
:103F000037FD00BF00080020000000000000000096
:103F100070B5104C82B00E46236801930DF1020279
:103F20002021054603F054F938B9BDF8023053B1E9
:103F3000DB00012233602B622A77019A23689A42C0
:103F400005D102B070BD2B6A33602877F5E7FDF725
:103F50000FFD00BF0008002000000000000000006E
:103F6000F0B5294F83B03B680193052947D80E4629
:103F70000446154662B100EB81020023526B01201A
:103F8000711E04292FD8DFE801F025221306310025
:103F900010460123F4E75B00FE226021204603F077
:103FA000CFF870B9344445B9284684F8285008E061
:103FB00084F82B003444002DF6D0012384F82830F7
:103FC0000020019A3B689A421CD103B0F0BD84F8EE
:103FD0002A00EFE7C2F34F224421204603F098F86D
:103FE0000028DFD0EDE784F82800E3E71B01EF228B
:103FF0006021204603F0A4F80028D3D0E1E76FF059
:104000000300DEE7FDF7B4FC00080020000000001C
:1040100010B50C4B82B01C68019405290AD80144E4
:10402000002091F828101170019A1B689A4206D15D
:1040300002B010BD002111706FF00300F4E7FDF72E
:1040400097FC00BF000800200000000000000000F6
:10405000F0B543181C4E83B0044693F8280033682B
:1040600001930D46174630B105292AD8DFE801F043
:10407000141E1A1C0C0C04EB81046263019A336851
:104080009A421CD103B0F0BDC2F34F2264212046F6
:1040900003F03EF808B1F1E7626304EB8504002009
:1040A0006763EBE7E263F8E72264F6E7C2F34F22C7
:1040B0004421204603F02CF80028EED0DEE7FDF77F
:1040C00057FC6FF00300D9E7000800200000000053
:1040D00070B5204C82B02368019305461646052929
:1040E00034D8DFE801F0030E0C1E2020436B336050
:1040F0000020019A23689A4226D102B070BDC36B9A
:10410000F5E70DF10202442103F062F80028F0D136
:10411000BDF802305A028BB9AB6B336085F82900C9
:10412000E7E7036CE3E70DF10202642103F050F8C6
:104130000028DED1BDF802305B02D8E701233260EF
:10414000AA6385F82930D4E7FDF712FC6FF003006D
:10415000CFE700BF000800200000000000000000C2
:1041600070B5104C82B00E46236801930DF1030226
:104170000121054603F014F858B99DF8033085F87D
:1041800030311B064BBF012303463370307085F876
:104190004C30019A23689A4201D102B070BDFDF7FC
:1041A000E7FB00BF00080020000000000000000046
:1041B0002DE9F047DFF898A0027CDAF8003082B0F1
:1041C0000F4601F8082B06460193FFF759FEA0BBE6
:1041D000387307F110013046FFF79AFE68BB07F10C
:1041E0001401304600F0A4FD38BB044607F1240555
:1041F00006F1280907F118082A46A1B23046FFF750
:1042000067FFD0B9013419F8013B08F8013B062CCF
:1042100005F10405F0D107F13C013046FFF7A0FF9E
:1042200058B9019ADAF800309A420ED1391D304659
:1042300002B0BDE8F04702F0CBB8019ADAF80030DE
:104240009A4202D102B0BDE8F087FDF791FB00BFB2
:104250000008002000000000000000000000000036
:104260002DE9F041614F92B005463B681193002261
:10427000882102F035FF4FF47A724FF4C8735C491D
:10428000A5F85221A5F854315A4AC5F8581100230F
:10429000C5F8D42085F8F0302B62284601A9FFF735
:1042A00087FF044688B9ADF8040001AE0FCE05F1D2
:1042B000100CACE80F000FCEACE80F000FCEACE84E
:1042C0000F0096E80F008CE80F004B4BC5F8343117
:1042D00001264FF420634FF4FA72A5F83C31A5F89B
:1042E00038218021324685F85061284602F0F8FED8
:1042F00032468046FF21284602F0F2FE002248EABC
:10430000000011460443284602F0EAFE64B20DF1B3
:10431000030204439121284602F042FF64B29DF853
:10432000033085F83A31044332460021284602F032
:10433000D7FE64B200220443FF21284602F0D0FEDB
:1043400064B2044300228021284602F0C9FE64B210
:10435000204340B278B90146324628463446FFF73A
:10436000FFFD40B90122A1B228461444FFF7F8FD31
:10437000062CF6D130B1119A3B689A4233D112B073
:10438000BDE8F0816885024604212846FFF7E8FD74
:104390000028F0D1024605212846FFF7E1FD00285C
:1043A000E9D14FF490136B634FF48042012128460A
:1043B000FFF74EFE0028DED14FF40C13EB6395F8A7
:1043C0002B3003B10023FF222B6485F8302101211B
:1043D000284602F085FE012385F832310028CAD133
:1043E00085F81501C7E7FDF7C3FA00BF00080020F4
:1043F000856B0100A47009006400840300000000C4
:1044000010B5084B82B01C680194019C1B689C424B
:1044100005D1012302B0BDE8104000F079BFFDF7DF
:10442000A7FA00BF00080020000000000000000004
:1044300030B5184C90F8DA30226883B0042B019222
:104440000D460DF1030211D0142102F0A9FE20B98E
:104450009DF80330DB0706D42870019A23689A423E
:1044600015D103B030BD01232B70F6E7132102F004
:1044700097FE9DF8033013F0180F03F0070318BFE1
:104480006FF00500042BEED000232B70E5E7FDF75D
:104490006FFA00BF000800200000000000000000CC
:1044A0002DE9F047564F8EB03B680D930C460C2318
:1044B0000AAA1421054602F0F3FD8646002840F0C2
:1044C0008B809DF82EE09DF830C09DF82F209DF840
:1044D00031109DF82A609DF82B30A07502EB0E225A
:1044E00001EB0C2192B289B249025202C4E90321C4
:1044F00003EB0623C4E900009BB2A3829DF832803F
:104500009DF83360B5F852E195F831C19DF8281057
:1045100006EB0826BEF57A7FB6B21FD006FB0EF674
:10452000DFF8E09095F81C80D5F820E006F5FA76E3
:10453000A9FB0696B609B8F1000F0ED01FFA8EFE41
:1045400003FB0EFE4FEA2E2E72454DD0B6B202FB93
:1045500006F6A2EB0E0EB6FBFEF6B6B2BCF1000FED
:1045600047D0B001C0B2B608E0750DF10B0026814E
:10457000CDE90040284602F083FA864660BB9DF8EC
:104580000B8084F8188005F150060FCE0DF10C0C4D
:10459000ACE80F002389ADF8143096E80700638972
:1045A000ADF81630E36894F817A0B4F814900693A9
:1045B0002369646804948CE8070003AC8DF82480B8
:1045C0008DF823A00793ADF820900FCC50350FC580
:1045D0009CE8070086E807000D9A3B689A427046FF
:1045E0000CD10EB0BDE8F087BCF1000F03D148F646
:1045F000E0260020B8E740F6AE06B5E7FDF7B8F9CB
:1046000000080020D34D62100000000000000000F0
:104610002DE9F041134D144C296882B016460191E2
:104620000DF102020E211F46804602F0D1FDBDF8B9
:10463000023004EA4343336050B90DF102024046B0
:104640000C2102F0C5FDBDF8023004EA43443C6091
:10465000019A2B689A4202D102B0BDE8F081FDF7C1
:1046600087F900BF000800200000FE1F00000000C6
:10467000F0B590F8DA30254C85B0013B2268039202
:10468000022B07D90025039A23689A4228463AD17B
:1046900005B0F0BD02AB0F4601AA01210646FFF7A7
:1046A000B7FF019BB3F57F0F05461FD9002DEAD157
:1046B0001FBB0422FF21304602F012FD2A460746A6
:1046C0007021304602F00CFD2A460743FF21304698
:1046D00002F006FD7FB22A46802147EA00053046F7
:1046E00002F0FEFC6DB205436DB2CCE7029BB3F560
:1046F0007F0FC8D9002DDBD0C5E73046044901F053
:10470000DFFE0546BFE7FDF733F900BF00080020D4
:10471000B0090020000000000000000000000000C0
:10472000F0B53F4F057C3B6883B0044601228021F1
:10473000019302F0D5FC0122FF21204602F0D0FCBB
:1047400000221146204602F0CBFC94F83A21912138
:10475000204602F0C5FC01220021204602F0C0FCE8
:104760000022FF21204602F0BBFC204600228021CF
:1047700002F0B6FC012D37D017D3032D08D06FF00F
:104780000706019A3B689A42304647D103B0F0BD14
:1047900068B304220021204602F0A2FC064600284D
:1047A000EFD1042384F83231EBE7012200212046C7
:1047B00002F096FC012306468DF803300028E0D174
:1047C00005462DB301350DF103020021204602F00C
:1047D000E7FC9DF80330DB0713D590B9B5F5FA6F08
:1047E000EFD16FF00606CCE730B10222D2E701210B
:1047F0002046FFF73DFFCCE729462046FFF738FF6C
:10480000F3E7B5F5FA6F14BF06466FF00606B8E792
:104810009DF80330DA07B4D50225D4E7FDF7A8F8F0
:104820000008002000000000000000000000000060
:1048300030B5114C037C226883B0019283B90546E0
:10484000FFF76EFF30B9284600F0B2FF10B903231E
:1048500085F83231019A23689A420AD103B030BDFB
:10486000019A23689A4204D103B0BDE8304000F0B9
:104870009FBFFDF77DF800BF00080020000000008A
:1048800030B51D4D83B000222B68019304461146BC
:1048900002F026FC0122FF21204602F021FC00222A
:1048A0001146204602F01CFC00229121204602F015
:1048B00017FC01220021204602F012FC20460022B3
:1048C000FF2102F00DFC70B9019A2B6801469A4253
:1048D0004FF0030084F832010BD1204603B0BDE84D
:1048E0003040FFF7C5BE019A2B689A4201D103B050
:1048F00030BDFDF73DF800BF0008002000000000BB
:10490000F0B51A4F83B03B6801930646002501229B
:104910000B21304602F0E4FB002204460B21304616
:1049200002F0DEFB0DF1030204431321304602F0D6
:1049300037FC9DF8033064B2204301355B0740B279
:10494000EDB20CD0032D07D00028E0D0019A3B68CF
:104950009A4209D103B0F0BD6FF00B00F6E7032DCA
:1049600008BF6FF00B00F1E7FDF702F80008002028
:1049700070B5124C82B000222368027405460E46C0
:104980000193FFF755FF28B1019A23689A4212D18B
:1049900002B070BD31462846FFF782FD0028F3D1F2
:1049A000019A23689A4206D10146284602B0BDE822
:1049B0007040FFF7A5BFFCF7DBFF00BF0008002039
:1049C000F0B5574D83B02C680194152906463AD0AE
:1049D00014461F46042A00F2A080DFE802F02132CC
:1049E0002E30030004220A21304602F079FBF0B990
:1049F000002F14BF10230023EF228421304602F041
:104A00009FFBA0B9019A2B6886F8DA409A4240F0E1
:104A100082800146304603B0BDE8F040FFF770BF2A
:104A200000220A21304602F05BFB0028E0D0019A08
:104A30002B689A426FD103B0F0BD0222D3E7032264
:104A4000D1E70122CFE70122FF2102F049FB00223A
:104A500011460446304602F043FB00220443FF2186
:104A6000304602F03DFB64B201220443802130460F
:104A700002F036FB64B2022204438521304602F084
:104A80002FFB64B204220443FF21304602F028FBCE
:104A900064B200220443CD21304602F021FB64B20F
:104AA00011220443CC21304602F01AFB64B20722E3
:104AB0000443FF21304602F013FB64B2002204439A
:104AC000BE21304602F00CFB64B206220443FF21F3
:104AD000304602F005FB64B209220443CC21304683
:104AE00002F0FEFA64B200220443FF21304602F0D5
:104AF000F7FA64B201220443FF21304602F0F0FAD3
:104B000064B2002204431146304602F0E9FA64B26E
:104B1000204340B28BE7FCF72BFF6FF00A0086E7DB
:104B2000000800200000000000000000000000005D
:104B3000F0B5704F97B004463B68159340220021B2
:104B400005A80BF085FB002320460121ADF80A30B3
:104B50008DF807308DF80830039300F091FE94F83B
:104B60001421012A06D894F8131100F0B9800C29F9
:104B700040F2B98002AA03A9204600F0F9FB0546DD
:104B8000002D40F0A38094F85031002B00F0A58058
:104B90005949204601F094FC0546002840F09680D3
:104BA0002B46294604222046FFF70AFF0546002827
:104BB00040F08C800122FF21204602F091FA0DF195
:104BC0000A0206468421204602F002FB2A46FF2103
:104BD00046EA0005204602F083FA6DB205436DB245
:104BE000002D73D1BDF80A301B01C4F8D43005A9DB
:104BF0002046FFF7DDFA0546002867D10DF10702D0
:104C00000921204602F0CCFA054600285ED105AE07
:104C10000FCE9DF807C004F110050CF0010C84F8CC
:104C200031C10FC50FCE0FC50FCE0FC596E80F00CF
:104C30008DF807C085E80F000DF10702012120461D
:104C400002F0AEFA0546002840D19DF8073084F8FE
:104C50003031024601462046FFF772F80546A8BBF0
:104C6000024602212046FFF76BF8054670BB03237E
:104C7000014684F832310DF10902204601F008FBAB
:104C8000054618BB9DF8093084F8E8300DF109029B
:104C90000121204601F0FCFA0546B8B99DF809301B
:104CA00084F8E03004AA0321204601F0C9F8054643
:104CB00060B9049BC4F8E43004AA0421204601F042
:104CC000BFF8054610B9049BC4F8DC30159A3B6860
:104CD0009A4228460CD117B0F0BDD4F84C1158E7D1
:104CE00020293FF647AF204600F042F9054647E746
:104CF000FCF73EFE00080020BC0800200000000079
:104D000010B5074B82B01C680194019C1B689C4243
:104D100004D102B0BDE8104000F02ABBFCF728FE29
:104D2000000800200000000000000000000000005B
:104D300030B5134C83B00D46236801930DF1020288
:104D4000282102F045FA50B9BDF80230C3F30B0335
:104D5000B3F5006F09D2FA2202FB03F32B60019A2C
:104D600023689A420AD103B030BDA3F58053C3EB48
:104D7000431203EB82035B002B60F0E7FCF7F8FDC6
:104D800000080020000000000000000000000000FB
:104D9000F0B5DFF860C083B0DCF800400194D708BC
:104DA0004FF0FF348F421C6017D23C1902F007020B
:104DB00020443E4610F8015FBE4203BF1541EDB2EC
:104DC0001446002415F0010F0ED10134082C4FEACF
:104DD0005505F7D10136B142ECD1019ADCF800302B
:104DE0009A4205D103B0F0BD04EBC6041C60F4E7A1
:104DF000FCF7BEFD000800200000000000000000DD
:104E00002DE9F04F87B0354CDDF84C802468129EB8
:104E100005941F46149B01900296DDE9105B0093F8
:104E2000B8F1000F33D08A46914600241AE003EB14
:104E30000B0292092A4951F82220003218BF0122A0
:104E4000524518D1DA08954207D9B85C03F007013A
:104E5000012606FA01F10143B9540134A04503F1DA
:104E6000010614D002AB324629464846FFF790FFB0
:104E7000029B5A1CDBD1009B6FF031001E60174B68
:104E8000059A1B689A4227D107B0BDE8F08F009BB6
:104E900001981E603A460623B02102F0E1F800288E
:104EA000EDD1019803AA0623B02102F0F9F8002DF4
:104EB000E5D09DF80C203B789A420AD13D4403ABE3
:104EC0000137AF42DBD017F8012B13F8011F9142D5
:104ED000F7D06FF03100D2E7FCF74AFD0008002060
:104EE000680B00200000000000000000000000002F
:104EF000F0B51D4D90F830612B6889B00F46C02287
:104F000001210446079302F0EBF828B1079A2B68B9
:104F10009A4226D109B0F0BD69462046FFF728FD28
:104F20000028F3D10122FF21204602F0D9F8002801
:104F3000ECD13A46B621204602F04AF90028E5D1E4
:104F40000246FF21204602F0CBF80028DED132468F
:104F50000121204602F0C4F80028D7D184F830613E
:104F6000D4E7FCF705FD00BF0008002000000000AA
:104F7000F0B52F4E89B00F461546336807930122CE
:104F8000FF21044602F0ACF8A8B30021C4F82411B4
:104F9000A4F828116DB327488368012203B306A83B
:104FA000B4220623CDE90032CDE90217049004F5BE
:104FB000927304F5957229462046FFF721FF30B918
:104FC000012384F8137184F8145184F81531079A79
:104FD00033689A422AD109B0F0BD2C290A46DED0A6
:104FE00002F1B5039B09511C50F82330002BF4D07B
:104FF000D5E72946D3E702464F21204602F070F854
:105000000028C2D12C224E21204602F069F8024627
:105010000028BAD1FF21204602F062F80028B4D15E
:10502000B422B621204602F05BF8AEE7FCF7A0FC04
:1050300000080020680B00200000000000000000B5
:1050400030B5164C83B041F0010223680193002172
:10505000054602F045F8024630B1019923689942AD
:10506000104619D103B030BD284600F0A1FB02461E
:105070000028F2D101462846FFF742FC02460028EC
:10508000EBD101992368994206D12846114603B015
:10509000BDE8304002F024B8FCF76AFC00080020AC
:1050A0002DE9F04F87B03F4F109C039400263C68D9
:1050B00002928A460122FF210546019305948DF84C
:1050C0001360DDF844809DF848B09DF84C9002F0E4
:1050D00007F8324604463146284602F001F83246C7
:1050E0000443FF21284601F0FBFF64B2044364B28D
:1050F000BAF1000F27D0BBF1000F33D1B9F1000F87
:105100003AD10122FF21284601F0EAFF012204439F
:105110000021284601F0E4FF64B200220443FF218D
:10512000284601F0DDFF9DF81330059A23F01003A7
:1051300088F800303B6864B220439A4240B22FD1D5
:1051400007B0BDE8F08FBBF1000F1ED1B9F1000F21
:10515000D7D0019B8022EE21284601F0F1FF0443C5
:1051600064B2CEE7039ACB21284602F019F8044333
:1051700064B2B9F1000FC4D00DF11302EE2128463C
:1051800002F00EF8044364B2BBE7029ACB21284632
:1051900001F0A6FF044364B2B9F1000FB1D0D8E723
:1051A000FCF7E6FB00080020000000000000000003
:1051B0002DE9F0472A4F86B03C6805940024054647
:1051C000884691468DF813401E469BB1012290F807
:1051D00030A11146284601F083FF044698B1002310
:1051E00088F80030059A3B689A42204635D106B0CF
:1051F000BDE8F0870122114628469A4601F070FF6B
:1052000004460028EBD140212846FFF719FF044649
:105210000028E4D1B9F1010F0ED088F80000002E6B
:10522000E0D052460121284601F05AFF04460028EA
:10523000D8D185F830A1D5E70DF11303CDE902905F
:10524000019302460346CDF8008049462846FFF701
:1052500027FF0028E3D00446C4E7FCF789FB00BF22
:105260000008002000000000000000000000000016
:105270002DE9F047254F86B03C68059405468846E1
:1052800091461E469BB190F830A10222012128468A
:1052900001F026FF044660B1002388F80030059A2B
:1052A0003B689A4220462ED106B0BDE8F0879A4668
:1052B000EBE701462846FFF7C3FE04460028EBD182
:1052C000B9F1010F0ED088F80000002EE7D0524649
:1052D0000121284601F004FF04460028DFD185F8AB
:1052E00030A1DCE70DF11303CDE90209009302467A
:1052F0000346CDF8048049462846FFF7D1FE002832
:10530000E3D00446CBE7FCF733FB00BF00080020E6
:105310002DE9F041144C90F8307182B01E4623689C
:1053200001939046002332460546FFF741FF30B116
:10533000019A23689A4214D102B0BDE8F081034675
:10534000324641462846FFF793FF0028F0D13A46FF
:105350000121284601F0C4FE0028E9D185F830710A
:10536000E6E7FCF705FB00BF000800200000000096
:105370002DE9F04FDFF8B0A2B0F83C71DAF8004048
:1053800095B00023CDE90912C0F82431A0F82831E6
:105390000122FF2106461394CDE90F338DF83830F2
:1053A0008DF8393001F09CFE054648B1139ADAF8C1
:1053B00000309A42284640F0318115B0BDE8F08FA8
:1053C00002464F21304601F08BFE05460028EDD104
:1053D0002C224E21304601F083FE05460028E5D1FF
:1053E0000246FF21304601F07BFE05460028DDD154
:1053F000B422B621304601F073FE05460028D5D10F
:1054000002468021304601F06BFE05460028CDD1D2
:1054100003460DF139020EA93046FFF779FF054624
:105420000028C3D10DF1500B06F595734BF8140D00
:105430000320039006F592780620B4240D9302957C
:1054400029461A46CDE90004CDF810B0434630464F
:10545000FFF7D6FC05460028A8D10DF13A013046E9
:105460000F9CFFF745FD054600289FD1BDF83A3057
:10547000BB4230D904F1B4039B096A4951F8232097
:105480000023C6F82431A6F82831002A40F0BF8056
:105490002B2C03D9BBE02C2A144607D004F1B5030A
:1054A0009B09621C51F82330002BF4D0B421062351
:1054B0004FF00309CDE90031CDE90229CDF810B054
:1054C00043460D9A01213046FFF79AFC002800F070
:1054D0008D8005466AE700220C9291460792BB42F6
:1054E00066D2DB1B002BB8BF5B42B8F80420D8F8AB
:1054F000000008930B959DF81C300D9DADF84820D9
:1055000011900C934FF0030B224610AB0621284656
:10551000FFF73EFC109C631C10D004F1B403414A19
:105520009B0952F82330079A003318BF0123934296
:1055300059D1E308052B0BF1010902D96FF03105B0
:1055400034E718F8031004F00702012000FA02F211
:105550000A4308F80320B0210623424630460134AE
:1055600001F07EFD0028B4D10DF13A013046FFF77D
:10557000BFFC0028ADD1BDF83A20D31B002BB8BF2B
:105580005B42BA4225D9089A0B9D934210D9062353
:1055900011AAB021304601F063FDBDF84820034652
:1055A0001198C6F82401D946A8F80420002B37D159
:1055B000099A0A999DF83040C2F8009001230C70B6
:1055C00086F81531136886F813310B7886F8143194
:1055D000ECE6D8F80000B8F8042011900893CB4608
:1055E000ADF8482090E70B9DD946E1E70DF13A016F
:1055F00030460F9CFFF77CFC00287FF46AAFBDF8B3
:105600003A30BB4205D901220C92079267E7224645
:105610004CE701220C908146079260E7FCF7A8F95D
:105620001D46C3E6680B00200008002000000000B3
:1056300010B50E4982B00B680193013830F0FF03BA
:1056400009D000234008013320F0FF029BB2002A5A
:10565000F8D11B029BB2019C0A681844944280B2A4
:1056600001D102B010BDFCF783F900BF0008002093
:105670002DE9F0434B4E85B0336803930329174659
:10568000054657D0042940F0878001A9FEF7D0FBDA
:105690009DF8070078BB80460DF101094A460121BB
:1056A0002846FEF735FB0446E8B99DF801203E4B3D
:1056B0003E4803FB02F303F5FA73A0FB0323DA0968
:1056C0004FF47A709B0900FB0720B0FBF3F010EB5E
:1056D00008005DD102467121284601F019FD0446FB
:1056E00008B9C5F8DC70039A33689A42204656D14F
:1056F00005B0BDE8F0830DF101094A4600212846B6
:10570000FEF706FB04460028EDD10DF102025121FF
:10571000284601F05DFDBDF802305FFA83F81B0AF0
:1057200008FA03F808F101081FFA88F8044600286F
:10573000B4D0D8E70DF101020021FEF7E9FA9DF897
:105740000120194B044603FB02F3184803F5FA73D2
:10575000A0FB0323DA094FF47A709B0900FB0720B2
:10576000B0FBF3F080B280B9ADF80200A5F8D80024
:10577000002CB8D102465121284601F0C9FC04464C
:105780000028B0D1C5F8E470ADE7FFF751FFEBE7B3
:10579000FFF74EFF02469EE76FF00304A3E7FCF716
:1057A000E7F800BF00080020002F3A00D34D621038
:1057B000F0B5134F83B002AE00223B6806F8052D0A
:1057C000054601934FF4FA6408E09DF80330012B7D
:1057D0000AD0013C0ED0284601F02AFD3146284669
:1057E000FEF726FE0028F0D0019A3B689A4204D1C9
:1057F00003B0F0BD6FF00600F6E7FCF7B9F800BFA4
:105800000008002000000000000000000000000070
:10581000F0B5174F83B03B68019300228321064601
:1058200001F05EFC044680B94FF4FA6502E060B90D
:10583000013D17D00DF103028321304601F0B0FC89
:105840009DF803300446002BF1D00122304683211D
:1058500001F046FC019A3B6820439A4240B204D1D1
:1058600003B0F0BD6FF00604EFE7FCF781F800BF6E
:105870000008002000000000000000000000000000
:105880002DE9F04FDFF8B48590F8F060D8F80030DB
:1058900091B04FF0000B072E0F93CDE906BB0AD154
:1058A0005C460F9AD8F800309A42204640F0C482F5
:1058B00011B0BDE8F08F0F4601228021054601F0AE
:1058C0000FFC01228146FF21284601F009FC5A46BF
:1058D00049EA00095946284601F002FC4FFA89F9C5
:1058E000062249EA0009FF21284601F0F9FB4FFA98
:1058F00089F949EA00090DF111028321284601F0D6
:105900004FFC9DF811204FFA89F949EA000942F04D
:1059100004028321284601F0E3FB4FFA89F90722AC
:1059200049EA0009FF21284601F0DAFB4FFA89F91C
:105930000122812149EA0009284601F0D1FB4FFAF2
:1059400089F949EA0009284601F072FC4FFA89F901
:1059500049EA000901228021284601F0C1FB4FFAE3
:1059600089F949EA000017F0010A44B213D0F3079D
:1059700040F1FE8117F00203CDE901BB009310D185
:1059800017F0040B00F0EA80700740F16B810023F0
:1059900003939946E5E0CDE901AA17F002030093CD
:1059A000EED016F00209EBD102229421284601F034
:1059B00097FB83462846FFF72BFF4BEA0000044382
:1059C0000DF112029021284601F0EAFB64B27B221D
:1059D00094210443284601F083FB64B20443284623
:1059E000FFF716FF64B20DF113020443902128461D
:1059F00001F0D6FB64B2772294210443284601F0DB
:105A00006FFB64B204432846FFF702FF64B204430D
:105A100005AA9021284601F0F3FB059B64B2DA0049
:105A2000C3F38641044302F07802C3F3C6204FEA71
:105A3000536C8DF81120C3F3061378228DF82910CA
:105A40008DF82A00942128468DF828C08DF82B3037
:105A500001F046FB64B204432846FFF7D9FE64B266
:105A600005AA04439021284601F0CAFB059B9DF836
:105A700011C0990101F0400164B2C3F3865204439E
:105A80008DF81110C3F30620C3F3C6310CEB537C21
:105A90008DF82D20C3F3460379228DF82E108DF852
:105AA0002F00942128468DF82CC08DF8303001F05D
:105AB00017FB64B204432846FFF7AAFE64B205AAA6
:105AC00004439021284601F09BFB059B9DF8112083
:105AD00064B202EB9362C3F3C6414FEA830C044302
